{
  "contractName": "Uni",
  "abi": [
    {
      "inputs": [
        {
          "internalType": "address",
          "name": "account",
          "type": "address"
        },
        {
          "internalType": "address",
          "name": "minter_",
          "type": "address"
        },
        {
          "internalType": "uint256",
          "name": "mintingAllowedAfter_",
          "type": "uint256"
        }
      ],
      "stateMutability": "nonpayable",
      "type": "constructor"
    },
    {
      "anonymous": false,
      "inputs": [
        {
          "indexed": true,
          "internalType": "address",
          "name": "owner",
          "type": "address"
        },
        {
          "indexed": true,
          "internalType": "address",
          "name": "spender",
          "type": "address"
        },
        {
          "indexed": false,
          "internalType": "uint256",
          "name": "amount",
          "type": "uint256"
        }
      ],
      "name": "Approval",
      "type": "event"
    },
    {
      "anonymous": false,
      "inputs": [
        {
          "indexed": true,
          "internalType": "address",
          "name": "delegator",
          "type": "address"
        },
        {
          "indexed": true,
          "internalType": "address",
          "name": "fromDelegate",
          "type": "address"
        },
        {
          "indexed": true,
          "internalType": "address",
          "name": "toDelegate",
          "type": "address"
        }
      ],
      "name": "DelegateChanged",
      "type": "event"
    },
    {
      "anonymous": false,
      "inputs": [
        {
          "indexed": true,
          "internalType": "address",
          "name": "delegate",
          "type": "address"
        },
        {
          "indexed": false,
          "internalType": "uint256",
          "name": "previousBalance",
          "type": "uint256"
        },
        {
          "indexed": false,
          "internalType": "uint256",
          "name": "newBalance",
          "type": "uint256"
        }
      ],
      "name": "DelegateVotesChanged",
      "type": "event"
    },
    {
      "anonymous": false,
      "inputs": [
        {
          "indexed": false,
          "internalType": "address",
          "name": "minter",
          "type": "address"
        },
        {
          "indexed": false,
          "internalType": "address",
          "name": "newMinter",
          "type": "address"
        }
      ],
      "name": "MinterChanged",
      "type": "event"
    },
    {
      "anonymous": false,
      "inputs": [
        {
          "indexed": true,
          "internalType": "address",
          "name": "from",
          "type": "address"
        },
        {
          "indexed": true,
          "internalType": "address",
          "name": "to",
          "type": "address"
        },
        {
          "indexed": false,
          "internalType": "uint256",
          "name": "amount",
          "type": "uint256"
        }
      ],
      "name": "Transfer",
      "type": "event"
    },
    {
      "inputs": [],
      "name": "DELEGATION_TYPEHASH",
      "outputs": [
        {
          "internalType": "bytes32",
          "name": "",
          "type": "bytes32"
        }
      ],
      "stateMutability": "view",
      "type": "function",
      "constant": true
    },
    {
      "inputs": [],
      "name": "DOMAIN_TYPEHASH",
      "outputs": [
        {
          "internalType": "bytes32",
          "name": "",
          "type": "bytes32"
        }
      ],
      "stateMutability": "view",
      "type": "function",
      "constant": true
    },
    {
      "inputs": [],
      "name": "PERMIT_TYPEHASH",
      "outputs": [
        {
          "internalType": "bytes32",
          "name": "",
          "type": "bytes32"
        }
      ],
      "stateMutability": "view",
      "type": "function",
      "constant": true
    },
    {
      "inputs": [
        {
          "internalType": "address",
          "name": "",
          "type": "address"
        },
        {
          "internalType": "uint32",
          "name": "",
          "type": "uint32"
        }
      ],
      "name": "checkpoints",
      "outputs": [
        {
          "internalType": "uint32",
          "name": "fromBlock",
          "type": "uint32"
        },
        {
          "internalType": "uint96",
          "name": "votes",
          "type": "uint96"
        }
      ],
      "stateMutability": "view",
      "type": "function",
      "constant": true
    },
    {
      "inputs": [],
      "name": "decimals",
      "outputs": [
        {
          "internalType": "uint8",
          "name": "",
          "type": "uint8"
        }
      ],
      "stateMutability": "view",
      "type": "function",
      "constant": true
    },
    {
      "inputs": [
        {
          "internalType": "address",
          "name": "",
          "type": "address"
        }
      ],
      "name": "delegates",
      "outputs": [
        {
          "internalType": "address",
          "name": "",
          "type": "address"
        }
      ],
      "stateMutability": "view",
      "type": "function",
      "constant": true
    },
    {
      "inputs": [],
      "name": "minimumTimeBetweenMints",
      "outputs": [
        {
          "internalType": "uint32",
          "name": "",
          "type": "uint32"
        }
      ],
      "stateMutability": "view",
      "type": "function",
      "constant": true
    },
    {
      "inputs": [],
      "name": "mintCap",
      "outputs": [
        {
          "internalType": "uint8",
          "name": "",
          "type": "uint8"
        }
      ],
      "stateMutability": "view",
      "type": "function",
      "constant": true
    },
    {
      "inputs": [],
      "name": "minter",
      "outputs": [
        {
          "internalType": "address",
          "name": "",
          "type": "address"
        }
      ],
      "stateMutability": "view",
      "type": "function",
      "constant": true
    },
    {
      "inputs": [],
      "name": "mintingAllowedAfter",
      "outputs": [
        {
          "internalType": "uint256",
          "name": "",
          "type": "uint256"
        }
      ],
      "stateMutability": "view",
      "type": "function",
      "constant": true
    },
    {
      "inputs": [],
      "name": "name",
      "outputs": [
        {
          "internalType": "string",
          "name": "",
          "type": "string"
        }
      ],
      "stateMutability": "view",
      "type": "function",
      "constant": true
    },
    {
      "inputs": [
        {
          "internalType": "address",
          "name": "",
          "type": "address"
        }
      ],
      "name": "nonces",
      "outputs": [
        {
          "internalType": "uint256",
          "name": "",
          "type": "uint256"
        }
      ],
      "stateMutability": "view",
      "type": "function",
      "constant": true
    },
    {
      "inputs": [
        {
          "internalType": "address",
          "name": "",
          "type": "address"
        }
      ],
      "name": "numCheckpoints",
      "outputs": [
        {
          "internalType": "uint32",
          "name": "",
          "type": "uint32"
        }
      ],
      "stateMutability": "view",
      "type": "function",
      "constant": true
    },
    {
      "inputs": [],
      "name": "symbol",
      "outputs": [
        {
          "internalType": "string",
          "name": "",
          "type": "string"
        }
      ],
      "stateMutability": "view",
      "type": "function",
      "constant": true
    },
    {
      "inputs": [],
      "name": "totalSupply",
      "outputs": [
        {
          "internalType": "uint256",
          "name": "",
          "type": "uint256"
        }
      ],
      "stateMutability": "view",
      "type": "function",
      "constant": true
    },
    {
      "inputs": [
        {
          "internalType": "address",
          "name": "minter_",
          "type": "address"
        }
      ],
      "name": "setMinter",
      "outputs": [],
      "stateMutability": "nonpayable",
      "type": "function"
    },
    {
      "inputs": [
        {
          "internalType": "address",
          "name": "dst",
          "type": "address"
        },
        {
          "internalType": "uint256",
          "name": "rawAmount",
          "type": "uint256"
        }
      ],
      "name": "mint",
      "outputs": [],
      "stateMutability": "nonpayable",
      "type": "function"
    },
    {
      "inputs": [
        {
          "internalType": "address",
          "name": "account",
          "type": "address"
        },
        {
          "internalType": "address",
          "name": "spender",
          "type": "address"
        }
      ],
      "name": "allowance",
      "outputs": [
        {
          "internalType": "uint256",
          "name": "",
          "type": "uint256"
        }
      ],
      "stateMutability": "view",
      "type": "function",
      "constant": true
    },
    {
      "inputs": [
        {
          "internalType": "address",
          "name": "spender",
          "type": "address"
        },
        {
          "internalType": "uint256",
          "name": "rawAmount",
          "type": "uint256"
        }
      ],
      "name": "approve",
      "outputs": [
        {
          "internalType": "bool",
          "name": "",
          "type": "bool"
        }
      ],
      "stateMutability": "nonpayable",
      "type": "function"
    },
    {
      "inputs": [
        {
          "internalType": "address",
          "name": "owner",
          "type": "address"
        },
        {
          "internalType": "address",
          "name": "spender",
          "type": "address"
        },
        {
          "internalType": "uint256",
          "name": "rawAmount",
          "type": "uint256"
        },
        {
          "internalType": "uint256",
          "name": "deadline",
          "type": "uint256"
        },
        {
          "internalType": "uint8",
          "name": "v",
          "type": "uint8"
        },
        {
          "internalType": "bytes32",
          "name": "r",
          "type": "bytes32"
        },
        {
          "internalType": "bytes32",
          "name": "s",
          "type": "bytes32"
        }
      ],
      "name": "permit",
      "outputs": [],
      "stateMutability": "nonpayable",
      "type": "function"
    },
    {
      "inputs": [
        {
          "internalType": "address",
          "name": "account",
          "type": "address"
        }
      ],
      "name": "balanceOf",
      "outputs": [
        {
          "internalType": "uint256",
          "name": "",
          "type": "uint256"
        }
      ],
      "stateMutability": "view",
      "type": "function",
      "constant": true
    },
    {
      "inputs": [
        {
          "internalType": "address",
          "name": "dst",
          "type": "address"
        },
        {
          "internalType": "uint256",
          "name": "rawAmount",
          "type": "uint256"
        }
      ],
      "name": "transfer",
      "outputs": [
        {
          "internalType": "bool",
          "name": "",
          "type": "bool"
        }
      ],
      "stateMutability": "nonpayable",
      "type": "function"
    },
    {
      "inputs": [
        {
          "internalType": "address",
          "name": "src",
          "type": "address"
        },
        {
          "internalType": "address",
          "name": "dst",
          "type": "address"
        },
        {
          "internalType": "uint256",
          "name": "rawAmount",
          "type": "uint256"
        }
      ],
      "name": "transferFrom",
      "outputs": [
        {
          "internalType": "bool",
          "name": "",
          "type": "bool"
        }
      ],
      "stateMutability": "nonpayable",
      "type": "function"
    },
    {
      "inputs": [
        {
          "internalType": "address",
          "name": "delegatee",
          "type": "address"
        }
      ],
      "name": "delegate",
      "outputs": [],
      "stateMutability": "nonpayable",
      "type": "function"
    },
    {
      "inputs": [
        {
          "internalType": "address",
          "name": "delegatee",
          "type": "address"
        },
        {
          "internalType": "uint256",
          "name": "nonce",
          "type": "uint256"
        },
        {
          "internalType": "uint256",
          "name": "expiry",
          "type": "uint256"
        },
        {
          "internalType": "uint8",
          "name": "v",
          "type": "uint8"
        },
        {
          "internalType": "bytes32",
          "name": "r",
          "type": "bytes32"
        },
        {
          "internalType": "bytes32",
          "name": "s",
          "type": "bytes32"
        }
      ],
      "name": "delegateBySig",
      "outputs": [],
      "stateMutability": "nonpayable",
      "type": "function"
    },
    {
      "inputs": [
        {
          "internalType": "address",
          "name": "account",
          "type": "address"
        }
      ],
      "name": "getCurrentVotes",
      "outputs": [
        {
          "internalType": "uint96",
          "name": "",
          "type": "uint96"
        }
      ],
      "stateMutability": "view",
      "type": "function",
      "constant": true
    },
    {
      "inputs": [
        {
          "internalType": "address",
          "name": "account",
          "type": "address"
        },
        {
          "internalType": "uint256",
          "name": "blockNumber",
          "type": "uint256"
        }
      ],
      "name": "getPriorVotes",
      "outputs": [
        {
          "internalType": "uint96",
          "name": "",
          "type": "uint96"
        }
      ],
      "stateMutability": "view",
      "type": "function",
      "constant": true
    }
  ],
  "bytecode": "0x60806040526b033b2e3c9fd0803ce80000006000553480156200002157600080fd5b506040516200455c3803806200455c833981810160405262000047919081019062000244565b428110156200008d576040517f08c379a0000000000000000000000000000000000000000000000000000000008152600401620000849062000362565b60405180910390fd5b600054600460008573ffffffffffffffffffffffffffffffffffffffff1673ffffffffffffffffffffffffffffffffffffffff16815260200190815260200160002060006101000a8154816bffffffffffffffffffffffff02191690836bffffffffffffffffffffffff1602179055508273ffffffffffffffffffffffffffffffffffffffff16600073ffffffffffffffffffffffffffffffffffffffff167fddf252ad1be2c89b69c2b068fc378daa952ba7f163c4a11628f55a4df523b3ef6000546040516200015f919062000384565b60405180910390a381600160006101000a81548173ffffffffffffffffffffffffffffffffffffffff021916908373ffffffffffffffffffffffffffffffffffffffff1602179055507f3b0007eb941cf645526cbb3a4fdaecda9d28ce4843167d9263b536a1f1edc0f66000600160009054906101000a900473ffffffffffffffffffffffffffffffffffffffff16604051620001fe92919062000335565b60405180910390a18060028190555050505062000460565b60008151905062000227816200042c565b92915050565b6000815190506200023e8162000446565b92915050565b6000806000606084860312156200025a57600080fd5b60006200026a8682870162000216565b93505060206200027d8682870162000216565b925050604062000290868287016200022d565b9150509250925092565b620002a581620003f0565b82525050565b620002b681620003b2565b82525050565b6000620002cb603983620003a1565b91507f556e693a3a636f6e7374727563746f723a206d696e74696e672063616e206f6e60008301527f6c7920626567696e206166746572206465706c6f796d656e74000000000000006020830152604082019050919050565b6200032f81620003e6565b82525050565b60006040820190506200034c60008301856200029a565b6200035b6020830184620002ab565b9392505050565b600060208201905081810360008301526200037d81620002bc565b9050919050565b60006020820190506200039b600083018462000324565b92915050565b600082825260208201905092915050565b6000620003bf82620003c6565b9050919050565b600073ffffffffffffffffffffffffffffffffffffffff82169050919050565b6000819050919050565b6000620003fd8262000404565b9050919050565b6000620004118262000418565b9050919050565b60006200042582620003c6565b9050919050565b6200043781620003b2565b81146200044357600080fd5b50565b6200045181620003e6565b81146200045d57600080fd5b50565b6140ec80620004706000396000f3fe608060405234801561001057600080fd5b50600436106101a95760003560e01c80636fcfff45116100f9578063b4b5ea5711610097578063dd62ed3e11610071578063dd62ed3e146104fa578063e7a324dc1461052a578063f1127ed814610548578063fca3b5aa14610579576101a9565b8063b4b5ea5714610492578063c3cda520146104c2578063d505accf146104de576101a9565b8063782d6fe1116100d3578063782d6fe1146103e45780637ecebe001461041457806395d89b4114610444578063a9059cbb14610462576101a9565b80636fcfff451461036657806370a082311461039657806376c71ca1146103c6576101a9565b806330adf81f1161016657806340c10f191161014057806340c10f19146102e0578063587cde1e146102fc5780635c11d62f1461032c5780635c19a95c1461034a576101a9565b806330adf81f1461028657806330b36cef146102a4578063313ce567146102c2576101a9565b806306fdde03146101ae57806307546172146101cc578063095ea7b3146101ea57806318160ddd1461021a57806320606b701461023857806323b872dd14610256575b600080fd5b6101b6610595565b6040516101c39190613a16565b60405180910390f35b6101d46105ce565b6040516101e1919061386c565b60405180910390f35b61020460048036036101ff9190810190612e94565b6105f4565b60405161021191906138b0565b60405180910390f35b610222610787565b60405161022f9190613c5a565b60405180910390f35b61024061078d565b60405161024d91906138cb565b60405180910390f35b610270600480360361026b9190810190612da7565b6107a4565b60405161027d91906138b0565b60405180910390f35b61028e610a38565b60405161029b91906138cb565b60405180910390f35b6102ac610a4f565b6040516102b99190613c5a565b60405180910390f35b6102ca610a55565b6040516102d79190613cb9565b60405180910390f35b6102fa60048036036102f59190810190612e94565b610a5a565b005b61031660048036036103119190810190612d42565b610e55565b604051610323919061386c565b60405180910390f35b610334610e88565b6040516103419190613c75565b60405180910390f35b610364600480360361035f9190810190612d42565b610e90565b005b610380600480360361037b9190810190612d42565b610e9d565b60405161038d9190613c75565b60405180910390f35b6103b060048036036103ab9190810190612d42565b610ec0565b6040516103bd9190613c5a565b60405180910390f35b6103ce610f2f565b6040516103db9190613cb9565b60405180910390f35b6103fe60048036036103f99190810190612e94565b610f34565b60405161040b9190613cef565b60405180910390f35b61042e60048036036104299190810190612d42565b611347565b60405161043b9190613c5a565b60405180910390f35b61044c61135f565b6040516104599190613a16565b60405180910390f35b61047c60048036036104779190810190612e94565b611398565b60405161048991906138b0565b60405180910390f35b6104ac60048036036104a79190810190612d42565b6113d5565b6040516104b99190613cef565b60405180910390f35b6104dc60048036036104d79190810190612ed0565b6114c3565b005b6104f860048036036104f39190810190612df6565b611766565b005b610514600480360361050f9190810190612d6b565b611bb8565b6040516105219190613c5a565b60405180910390f35b610532611c65565b60405161053f91906138cb565b60405180910390f35b610562600480360361055d9190810190612f59565b611c7c565b604051610570929190613c90565b60405180910390f35b610593600480360361058e9190810190612d42565b611cd5565b005b6040518060400160405280600781526020017f556e69737761700000000000000000000000000000000000000000000000000081525081565b600160009054906101000a900473ffffffffffffffffffffffffffffffffffffffff1681565b6000807fffffffffffffffffffffffffffffffffffffffffffffffffffffffffffffffff831415610647577fffffffffffffffffffffffffffffffffffffffffffffffffffffffffffffffff905061066c565b6106698360405180606001604052806024815260200161406460249139611e04565b90505b80600360003373ffffffffffffffffffffffffffffffffffffffff1673ffffffffffffffffffffffffffffffffffffffff16815260200190815260200160002060008673ffffffffffffffffffffffffffffffffffffffff1673ffffffffffffffffffffffffffffffffffffffff16815260200190815260200160002060006101000a8154816bffffffffffffffffffffffff02191690836bffffffffffffffffffffffff1602179055508373ffffffffffffffffffffffffffffffffffffffff163373ffffffffffffffffffffffffffffffffffffffff167f8c5be1e5ebec7d5bd14f71427d1e84f3dd0314c0f7b2291e5b200ac8c7c3b925836040516107749190613cd4565b60405180910390a3600191505092915050565b60005481565b60405161079990613842565b604051809103902081565b6000803390506000600360008773ffffffffffffffffffffffffffffffffffffffff1673ffffffffffffffffffffffffffffffffffffffff16815260200190815260200160002060008373ffffffffffffffffffffffffffffffffffffffff1673ffffffffffffffffffffffffffffffffffffffff16815260200190815260200160002060009054906101000a90046bffffffffffffffffffffffff16905060006108678560405180606001604052806024815260200161406460249139611e04565b90508673ffffffffffffffffffffffffffffffffffffffff168373ffffffffffffffffffffffffffffffffffffffff16141580156108e157507fffffffffffffffffffffffffffffffffffffffffffffffffffffffffffffffff6bffffffffffffffffffffffff16826bffffffffffffffffffffffff1614155b15610a1f57600061090b83836040518060600160405280603c8152602001613ee4603c9139611e62565b905080600360008a73ffffffffffffffffffffffffffffffffffffffff1673ffffffffffffffffffffffffffffffffffffffff16815260200190815260200160002060008673ffffffffffffffffffffffffffffffffffffffff1673ffffffffffffffffffffffffffffffffffffffff16815260200190815260200160002060006101000a8154816bffffffffffffffffffffffff02191690836bffffffffffffffffffffffff1602179055508373ffffffffffffffffffffffffffffffffffffffff168873ffffffffffffffffffffffffffffffffffffffff167f8c5be1e5ebec7d5bd14f71427d1e84f3dd0314c0f7b2291e5b200ac8c7c3b92583604051610a159190613cd4565b60405180910390a3505b610a2a878783611ed3565b600193505050509392505050565b604051610a449061382d565b604051809103902081565b60025481565b601281565b600160009054906101000a900473ffffffffffffffffffffffffffffffffffffffff1673ffffffffffffffffffffffffffffffffffffffff163373ffffffffffffffffffffffffffffffffffffffff1614610aea576040517f08c379a0000000000000000000000000000000000000000000000000000000008152600401610ae190613b7a565b60405180910390fd5b600254421015610b2f576040517f08c379a0000000000000000000000000000000000000000000000000000000008152600401610b2690613afa565b60405180910390fd5b600073ffffffffffffffffffffffffffffffffffffffff168273ffffffffffffffffffffffffffffffffffffffff161415610b9f576040517f08c379a0000000000000000000000000000000000000000000000000000000008152600401610b9690613ada565b60405180910390fd5b610bb3426301e1338063ffffffff166122b4565b6002819055506000610bdd8260405180606001604052806021815260200161404360219139611e04565b9050610bf9610bf2600054600260ff16612309565b6064612379565b816bffffffffffffffffffffffff161115610c49576040517f08c379a0000000000000000000000000000000000000000000000000000000008152600401610c4090613b5a565b60405180910390fd5b610c84610c66600054836bffffffffffffffffffffffff166122b4565b604051806060016040528060268152602001613f2060269139611e04565b6bffffffffffffffffffffffff16600081905550610d12600460008573ffffffffffffffffffffffffffffffffffffffff1673ffffffffffffffffffffffffffffffffffffffff16815260200190815260200160002060009054906101000a90046bffffffffffffffffffffffff1682604051806060016040528060248152602001613ec0602491396123c3565b600460008573ffffffffffffffffffffffffffffffffffffffff1673ffffffffffffffffffffffffffffffffffffffff16815260200190815260200160002060006101000a8154816bffffffffffffffffffffffff02191690836bffffffffffffffffffffffff1602179055508273ffffffffffffffffffffffffffffffffffffffff16600073ffffffffffffffffffffffffffffffffffffffff167fddf252ad1be2c89b69c2b068fc378daa952ba7f163c4a11628f55a4df523b3ef83604051610ddd9190613cd4565b60405180910390a3610e506000600560008673ffffffffffffffffffffffffffffffffffffffff1673ffffffffffffffffffffffffffffffffffffffff16815260200190815260200160002060009054906101000a900473ffffffffffffffffffffffffffffffffffffffff1683612439565b505050565b60056020528060005260406000206000915054906101000a900473ffffffffffffffffffffffffffffffffffffffff1681565b6301e1338081565b610e9a3382612734565b50565b60076020528060005260406000206000915054906101000a900463ffffffff1681565b6000600460008373ffffffffffffffffffffffffffffffffffffffff1673ffffffffffffffffffffffffffffffffffffffff16815260200190815260200160002060009054906101000a90046bffffffffffffffffffffffff166bffffffffffffffffffffffff169050919050565b600281565b6000438210610f78576040517f08c379a0000000000000000000000000000000000000000000000000000000008152600401610f6f90613aba565b60405180910390fd5b6000600760008573ffffffffffffffffffffffffffffffffffffffff1673ffffffffffffffffffffffffffffffffffffffff16815260200190815260200160002060009054906101000a900463ffffffff16905060008163ffffffff161415610fe5576000915050611341565b82600660008673ffffffffffffffffffffffffffffffffffffffff1673ffffffffffffffffffffffffffffffffffffffff16815260200190815260200160002060006001840363ffffffff1663ffffffff16815260200190815260200160002060000160009054906101000a900463ffffffff1663ffffffff16116110e757600660008573ffffffffffffffffffffffffffffffffffffffff1673ffffffffffffffffffffffffffffffffffffffff16815260200190815260200160002060006001830363ffffffff1663ffffffff16815260200190815260200160002060000160049054906101000a90046bffffffffffffffffffffffff16915050611341565b82600660008673ffffffffffffffffffffffffffffffffffffffff1673ffffffffffffffffffffffffffffffffffffffff16815260200190815260200160002060008063ffffffff16815260200190815260200160002060000160009054906101000a900463ffffffff1663ffffffff161115611168576000915050611341565b600080905060006001830390505b8163ffffffff168163ffffffff1611156112c3576000600283830363ffffffff168161119e57fe5b04820390506111ab612cab565b600660008973ffffffffffffffffffffffffffffffffffffffff1673ffffffffffffffffffffffffffffffffffffffff16815260200190815260200160002060008363ffffffff1663ffffffff1681526020019081526020016000206040518060400160405290816000820160009054906101000a900463ffffffff1663ffffffff1663ffffffff1681526020016000820160049054906101000a90046bffffffffffffffffffffffff166bffffffffffffffffffffffff166bffffffffffffffffffffffff1681525050905086816000015163ffffffff16141561129b57806020015195505050505050611341565b86816000015163ffffffff1610156112b5578193506112bc565b6001820392505b5050611176565b600660008773ffffffffffffffffffffffffffffffffffffffff1673ffffffffffffffffffffffffffffffffffffffff16815260200190815260200160002060008363ffffffff1663ffffffff16815260200190815260200160002060000160049054906101000a90046bffffffffffffffffffffffff1693505050505b92915050565b60086020528060005260406000206000915090505481565b6040518060400160405280600381526020017f554e49000000000000000000000000000000000000000000000000000000000081525081565b6000806113bd8360405180606001604052806025815260200161401e60259139611e04565b90506113ca338583611ed3565b600191505092915050565b600080600760008473ffffffffffffffffffffffffffffffffffffffff1673ffffffffffffffffffffffffffffffffffffffff16815260200190815260200160002060009054906101000a900463ffffffff16905060008163ffffffff161161143f5760006114bb565b600660008473ffffffffffffffffffffffffffffffffffffffff1673ffffffffffffffffffffffffffffffffffffffff16815260200190815260200160002060006001830363ffffffff1663ffffffff16815260200190815260200160002060000160049054906101000a90046bffffffffffffffffffffffff165b915050919050565b60006040516114d190613842565b60405180910390206040518060400160405280600781526020017f556e6973776170000000000000000000000000000000000000000000000000008152508051906020012061151e6128f4565b30604051602001611532949392919061398c565b604051602081830303815290604052805190602001209050600060405161155890613857565b60405180910390208888886040516020016115769493929190613947565b604051602081830303815290604052805190602001209050600082826040516020016115a39291906137f6565b6040516020818303038152906040528051906020012090506000600182888888604051600081526020016040526040516115e094939291906139d1565b6020604051602081039080840390855afa158015611602573d6000803e3d6000fd5b505050602060405103519050600073ffffffffffffffffffffffffffffffffffffffff168173ffffffffffffffffffffffffffffffffffffffff16141561167e576040517f08c379a000000000000000000000000000000000000000000000000000000000815260040161167590613a9a565b60405180910390fd5b600860008273ffffffffffffffffffffffffffffffffffffffff1673ffffffffffffffffffffffffffffffffffffffff168152602001908152602001600020600081548092919060010191905055891461170d576040517f08c379a000000000000000000000000000000000000000000000000000000000815260040161170490613bba565b60405180910390fd5b87421115611750576040517f08c379a000000000000000000000000000000000000000000000000000000000815260040161174790613a5a565b60405180910390fd5b61175a818b612734565b50505050505050505050565b60007fffffffffffffffffffffffffffffffffffffffffffffffffffffffffffffffff8614156117b8577fffffffffffffffffffffffffffffffffffffffffffffffffffffffffffffffff90506117dd565b6117da86604051806060016040528060238152602001613f7b60239139611e04565b90505b60006040516117eb90613842565b60405180910390206040518060400160405280600781526020017f556e697377617000000000000000000000000000000000000000000000000000815250805190602001206118386128f4565b3060405160200161184c949392919061398c565b60405160208183030381529060405280519060200120905060006040516118729061382d565b60405180910390208a8a8a600860008f73ffffffffffffffffffffffffffffffffffffffff1673ffffffffffffffffffffffffffffffffffffffff1681526020019081526020016000206000815480929190600101919050558b6040516020016118e1969594939291906138e6565b6040516020818303038152906040528051906020012090506000828260405160200161190e9291906137f6565b60405160208183030381529060405280519060200120905060006001828989896040516000815260200160405260405161194b94939291906139d1565b6020604051602081039080840390855afa15801561196d573d6000803e3d6000fd5b505050602060405103519050600073ffffffffffffffffffffffffffffffffffffffff168173ffffffffffffffffffffffffffffffffffffffff1614156119e9576040517f08c379a00000000000000000000000000000000000000000000000000000000081526004016119e090613c1a565b60405180910390fd5b8b73ffffffffffffffffffffffffffffffffffffffff168173ffffffffffffffffffffffffffffffffffffffff1614611a57576040517f08c379a0000000000000000000000000000000000000000000000000000000008152600401611a4e90613c3a565b60405180910390fd5b88421115611a9a576040517f08c379a0000000000000000000000000000000000000000000000000000000008152600401611a9190613bfa565b60405180910390fd5b84600360008e73ffffffffffffffffffffffffffffffffffffffff1673ffffffffffffffffffffffffffffffffffffffff16815260200190815260200160002060008d73ffffffffffffffffffffffffffffffffffffffff1673ffffffffffffffffffffffffffffffffffffffff16815260200190815260200160002060006101000a8154816bffffffffffffffffffffffff02191690836bffffffffffffffffffffffff1602179055508a73ffffffffffffffffffffffffffffffffffffffff168c73ffffffffffffffffffffffffffffffffffffffff167f8c5be1e5ebec7d5bd14f71427d1e84f3dd0314c0f7b2291e5b200ac8c7c3b92587604051611ba29190613cd4565b60405180910390a3505050505050505050505050565b6000600360008473ffffffffffffffffffffffffffffffffffffffff1673ffffffffffffffffffffffffffffffffffffffff16815260200190815260200160002060008373ffffffffffffffffffffffffffffffffffffffff1673ffffffffffffffffffffffffffffffffffffffff16815260200190815260200160002060009054906101000a90046bffffffffffffffffffffffff166bffffffffffffffffffffffff16905092915050565b604051611c7190613857565b604051809103902081565b6006602052816000526040600020602052806000526040600020600091509150508060000160009054906101000a900463ffffffff16908060000160049054906101000a90046bffffffffffffffffffffffff16905082565b600160009054906101000a900473ffffffffffffffffffffffffffffffffffffffff1673ffffffffffffffffffffffffffffffffffffffff163373ffffffffffffffffffffffffffffffffffffffff1614611d65576040517f08c379a0000000000000000000000000000000000000000000000000000000008152600401611d5c90613b9a565b60405180910390fd5b7f3b0007eb941cf645526cbb3a4fdaecda9d28ce4843167d9263b536a1f1edc0f6600160009054906101000a900473ffffffffffffffffffffffffffffffffffffffff1682604051611db8929190613887565b60405180910390a180600160006101000a81548173ffffffffffffffffffffffffffffffffffffffff021916908373ffffffffffffffffffffffffffffffffffffffff16021790555050565b60006c0100000000000000000000000083108290611e58576040517f08c379a0000000000000000000000000000000000000000000000000000000008152600401611e4f9190613a38565b60405180910390fd5b5082905092915050565b6000836bffffffffffffffffffffffff16836bffffffffffffffffffffffff1611158290611ec6576040517f08c379a0000000000000000000000000000000000000000000000000000000008152600401611ebd9190613a38565b60405180910390fd5b5082840390509392505050565b600073ffffffffffffffffffffffffffffffffffffffff168373ffffffffffffffffffffffffffffffffffffffff161415611f43576040517f08c379a0000000000000000000000000000000000000000000000000000000008152600401611f3a90613bda565b60405180910390fd5b600073ffffffffffffffffffffffffffffffffffffffff168273ffffffffffffffffffffffffffffffffffffffff161415611fb3576040517f08c379a0000000000000000000000000000000000000000000000000000000008152600401611faa90613b1a565b60405180910390fd5b61202d600460008573ffffffffffffffffffffffffffffffffffffffff1673ffffffffffffffffffffffffffffffffffffffff16815260200190815260200160002060009054906101000a90046bffffffffffffffffffffffff1682604051806060016040528060358152602001613f4660359139611e62565b600460008573ffffffffffffffffffffffffffffffffffffffff1673ffffffffffffffffffffffffffffffffffffffff16815260200190815260200160002060006101000a8154816bffffffffffffffffffffffff02191690836bffffffffffffffffffffffff160217905550612114600460008473ffffffffffffffffffffffffffffffffffffffff1673ffffffffffffffffffffffffffffffffffffffff16815260200190815260200160002060009054906101000a90046bffffffffffffffffffffffff16826040518060600160405280602f8152602001614088602f91396123c3565b600460008473ffffffffffffffffffffffffffffffffffffffff1673ffffffffffffffffffffffffffffffffffffffff16815260200190815260200160002060006101000a8154816bffffffffffffffffffffffff02191690836bffffffffffffffffffffffff1602179055508173ffffffffffffffffffffffffffffffffffffffff168373ffffffffffffffffffffffffffffffffffffffff167fddf252ad1be2c89b69c2b068fc378daa952ba7f163c4a11628f55a4df523b3ef836040516121de9190613cd4565b60405180910390a36122af600560008573ffffffffffffffffffffffffffffffffffffffff1673ffffffffffffffffffffffffffffffffffffffff16815260200190815260200160002060009054906101000a900473ffffffffffffffffffffffffffffffffffffffff16600560008573ffffffffffffffffffffffffffffffffffffffff1673ffffffffffffffffffffffffffffffffffffffff16815260200190815260200160002060009054906101000a900473ffffffffffffffffffffffffffffffffffffffff1683612439565b505050565b6000808284019050838110156122ff576040517f08c379a00000000000000000000000000000000000000000000000000000000081526004016122f690613a7a565b60405180910390fd5b8091505092915050565b60008083141561231c5760009050612373565b600082840290508284828161232d57fe5b041461236e576040517f08c379a000000000000000000000000000000000000000000000000000000000815260040161236590613b3a565b60405180910390fd5b809150505b92915050565b60006123bb83836040518060400160405280601a81526020017f536166654d6174683a206469766973696f6e206279207a65726f000000000000815250612901565b905092915050565b6000808385019050846bffffffffffffffffffffffff16816bffffffffffffffffffffffff161015839061242d576040517f08c379a00000000000000000000000000000000000000000000000000000000081526004016124249190613a38565b60405180910390fd5b50809150509392505050565b8173ffffffffffffffffffffffffffffffffffffffff168373ffffffffffffffffffffffffffffffffffffffff161415801561248357506000816bffffffffffffffffffffffff16115b1561272f57600073ffffffffffffffffffffffffffffffffffffffff168373ffffffffffffffffffffffffffffffffffffffff16146125db576000600760008573ffffffffffffffffffffffffffffffffffffffff1673ffffffffffffffffffffffffffffffffffffffff16815260200190815260200160002060009054906101000a900463ffffffff1690506000808263ffffffff16116125265760006125a2565b600660008673ffffffffffffffffffffffffffffffffffffffff1673ffffffffffffffffffffffffffffffffffffffff16815260200190815260200160002060006001840363ffffffff1663ffffffff16815260200190815260200160002060000160049054906101000a90046bffffffffffffffffffffffff165b905060006125c98285604051806060016040528060278152602001613ff760279139611e62565b90506125d786848484612962565b5050505b600073ffffffffffffffffffffffffffffffffffffffff168273ffffffffffffffffffffffffffffffffffffffff161461272e576000600760008473ffffffffffffffffffffffffffffffffffffffff1673ffffffffffffffffffffffffffffffffffffffff16815260200190815260200160002060009054906101000a900463ffffffff1690506000808263ffffffff16116126795760006126f5565b600660008573ffffffffffffffffffffffffffffffffffffffff1673ffffffffffffffffffffffffffffffffffffffff16815260200190815260200160002060006001840363ffffffff1663ffffffff16815260200190815260200160002060000160049054906101000a90046bffffffffffffffffffffffff165b9050600061271c8285604051806060016040528060268152602001613f9e602691396123c3565b905061272a85848484612962565b5050505b5b505050565b6000600560008473ffffffffffffffffffffffffffffffffffffffff1673ffffffffffffffffffffffffffffffffffffffff16815260200190815260200160002060009054906101000a900473ffffffffffffffffffffffffffffffffffffffff1690506000600460008573ffffffffffffffffffffffffffffffffffffffff1673ffffffffffffffffffffffffffffffffffffffff16815260200190815260200160002060009054906101000a90046bffffffffffffffffffffffff16905082600560008673ffffffffffffffffffffffffffffffffffffffff1673ffffffffffffffffffffffffffffffffffffffff16815260200190815260200160002060006101000a81548173ffffffffffffffffffffffffffffffffffffffff021916908373ffffffffffffffffffffffffffffffffffffffff1602179055508273ffffffffffffffffffffffffffffffffffffffff168273ffffffffffffffffffffffffffffffffffffffff168573ffffffffffffffffffffffffffffffffffffffff167f3134e8a2e6d97e929a7e54011ea5485d7d196dd5f0ba4d4ef95803e8e3fc257f60405160405180910390a46128ee828483612439565b50505050565b6000804690508091505090565b60008083118290612948576040517f08c379a000000000000000000000000000000000000000000000000000000000815260040161293f9190613a38565b60405180910390fd5b50600083858161295457fe5b049050809150509392505050565b600061298643604051806060016040528060338152602001613fc460339139612c55565b905060008463ffffffff16118015612a1b57508063ffffffff16600660008773ffffffffffffffffffffffffffffffffffffffff1673ffffffffffffffffffffffffffffffffffffffff16815260200190815260200160002060006001870363ffffffff1663ffffffff16815260200190815260200160002060000160009054906101000a900463ffffffff1663ffffffff16145b15612ab65781600660008773ffffffffffffffffffffffffffffffffffffffff1673ffffffffffffffffffffffffffffffffffffffff16815260200190815260200160002060006001870363ffffffff1663ffffffff16815260200190815260200160002060000160046101000a8154816bffffffffffffffffffffffff02191690836bffffffffffffffffffffffff160217905550612bfe565b60405180604001604052808263ffffffff168152602001836bffffffffffffffffffffffff16815250600660008773ffffffffffffffffffffffffffffffffffffffff1673ffffffffffffffffffffffffffffffffffffffff16815260200190815260200160002060008663ffffffff1663ffffffff16815260200190815260200160002060008201518160000160006101000a81548163ffffffff021916908363ffffffff16021790555060208201518160000160046101000a8154816bffffffffffffffffffffffff02191690836bffffffffffffffffffffffff16021790555090505060018401600760008773ffffffffffffffffffffffffffffffffffffffff1673ffffffffffffffffffffffffffffffffffffffff16815260200190815260200160002060006101000a81548163ffffffff021916908363ffffffff1602179055505b8473ffffffffffffffffffffffffffffffffffffffff167fdec2bacdd2f05b59de34da9b523dff8be42e5e38e818c82fdb0bae774387a7248484604051612c46929190613d0a565b60405180910390a25050505050565b600064010000000083108290612ca1576040517f08c379a0000000000000000000000000000000000000000000000000000000008152600401612c989190613a38565b60405180910390fd5b5082905092915050565b6040518060400160405280600063ffffffff16815260200160006bffffffffffffffffffffffff1681525090565b600081359050612ce881613e4c565b92915050565b600081359050612cfd81613e63565b92915050565b600081359050612d1281613e7a565b92915050565b600081359050612d2781613e91565b92915050565b600081359050612d3c81613ea8565b92915050565b600060208284031215612d5457600080fd5b6000612d6284828501612cd9565b91505092915050565b60008060408385031215612d7e57600080fd5b6000612d8c85828601612cd9565b9250506020612d9d85828601612cd9565b9150509250929050565b600080600060608486031215612dbc57600080fd5b6000612dca86828701612cd9565b9350506020612ddb86828701612cd9565b9250506040612dec86828701612d03565b9150509250925092565b600080600080600080600060e0888a031215612e1157600080fd5b6000612e1f8a828b01612cd9565b9750506020612e308a828b01612cd9565b9650506040612e418a828b01612d03565b9550506060612e528a828b01612d03565b9450506080612e638a828b01612d2d565b93505060a0612e748a828b01612cee565b92505060c0612e858a828b01612cee565b91505092959891949750929550565b60008060408385031215612ea757600080fd5b6000612eb585828601612cd9565b9250506020612ec685828601612d03565b9150509250929050565b60008060008060008060c08789031215612ee957600080fd5b6000612ef789828a01612cd9565b9650506020612f0889828a01612d03565b9550506040612f1989828a01612d03565b9450506060612f2a89828a01612d2d565b9350506080612f3b89828a01612cee565b92505060a0612f4c89828a01612cee565b9150509295509295509295565b60008060408385031215612f6c57600080fd5b6000612f7a85828601612cd9565b9250506020612f8b85828601612d18565b9150509250929050565b612f9e81613d65565b82525050565b612fad81613d77565b82525050565b612fbc81613d83565b82525050565b612fd3612fce82613d83565b613e31565b82525050565b6000612fe482613d3e565b612fee8185613d49565b9350612ffe818560208601613dfe565b61300781613e3b565b840191505092915050565b600061301d82613d33565b6130278185613d49565b9350613037818560208601613dfe565b61304081613e3b565b840191505092915050565b6000613058602583613d49565b91507f556e693a3a64656c656761746542795369673a207369676e617475726520657860008301527f70697265640000000000000000000000000000000000000000000000000000006020830152604082019050919050565b60006130be600283613d5a565b91507f19010000000000000000000000000000000000000000000000000000000000006000830152600282019050919050565b60006130fe601b83613d49565b91507f536166654d6174683a206164646974696f6e206f766572666c6f7700000000006000830152602082019050919050565b600061313e602583613d49565b91507f556e693a3a64656c656761746542795369673a20696e76616c6964207369676e60008301527f61747572650000000000000000000000000000000000000000000000000000006020830152604082019050919050565b60006131a4602683613d49565b91507f556e693a3a6765745072696f72566f7465733a206e6f7420796574206465746560008301527f726d696e656400000000000000000000000000000000000000000000000000006020830152604082019050919050565b600061320a602e83613d49565b91507f556e693a3a6d696e743a2063616e6e6f74207472616e7366657220746f20746860008301527f65207a65726f20616464726573730000000000000000000000000000000000006020830152604082019050919050565b6000613270605283613d5a565b91507f5065726d69742861646472657373206f776e65722c616464726573732073706560008301527f6e6465722c75696e743235362076616c75652c75696e74323536206e6f6e636560208301527f2c75696e7432353620646561646c696e652900000000000000000000000000006040830152605282019050919050565b60006132fc602283613d49565b91507f556e693a3a6d696e743a206d696e74696e67206e6f7420616c6c6f776564207960008301527f65740000000000000000000000000000000000000000000000000000000000006020830152604082019050919050565b6000613362604383613d5a565b91507f454950373132446f6d61696e28737472696e67206e616d652c75696e7432353660008301527f20636861696e49642c6164647265737320766572696679696e67436f6e74726160208301527f63742900000000000000000000000000000000000000000000000000000000006040830152604382019050919050565b60006133ee603983613d49565b91507f556e693a3a5f7472616e73666572546f6b656e733a2063616e6e6f742074726160008301527f6e7366657220746f20746865207a65726f2061646472657373000000000000006020830152604082019050919050565b6000613454602183613d49565b91507f536166654d6174683a206d756c7469706c69636174696f6e206f766572666c6f60008301527f77000000000000000000000000000000000000000000000000000000000000006020830152604082019050919050565b60006134ba601c83613d49565b91507f556e693a3a6d696e743a206578636565646564206d696e7420636170000000006000830152602082019050919050565b60006134fa602383613d49565b91507f556e693a3a6d696e743a206f6e6c7920746865206d696e7465722063616e206d60008301527f696e7400000000000000000000000000000000000000000000000000000000006020830152604082019050919050565b6000613560603d83613d49565b91507f556e693a3a7365744d696e7465723a206f6e6c7920746865206d696e7465722060008301527f63616e206368616e676520746865206d696e74657220616464726573730000006020830152604082019050919050565b60006135c6602183613d49565b91507f556e693a3a64656c656761746542795369673a20696e76616c6964206e6f6e6360008301527f65000000000000000000000000000000000000000000000000000000000000006020830152604082019050919050565b600061362c603b83613d49565b91507f556e693a3a5f7472616e73666572546f6b656e733a2063616e6e6f742074726160008301527f6e736665722066726f6d20746865207a65726f206164647265737300000000006020830152604082019050919050565b6000613692601e83613d49565b91507f556e693a3a7065726d69743a207369676e6174757265206578706972656400006000830152602082019050919050565b60006136d2603a83613d5a565b91507f44656c65676174696f6e28616464726573732064656c6567617465652c75696e60008301527f74323536206e6f6e63652c75696e7432353620657870697279290000000000006020830152603a82019050919050565b6000613738601e83613d49565b91507f556e693a3a7065726d69743a20696e76616c6964207369676e617475726500006000830152602082019050919050565b6000613778601983613d49565b91507f556e693a3a7065726d69743a20756e617574686f72697a6564000000000000006000830152602082019050919050565b6137b481613dad565b82525050565b6137c381613db7565b82525050565b6137d281613dc7565b82525050565b6137e181613dec565b82525050565b6137f081613dd4565b82525050565b6000613801826130b1565b915061380d8285612fc2565b60208201915061381d8284612fc2565b6020820191508190509392505050565b600061383882613263565b9150819050919050565b600061384d82613355565b9150819050919050565b6000613862826136c5565b9150819050919050565b60006020820190506138816000830184612f95565b92915050565b600060408201905061389c6000830185612f95565b6138a96020830184612f95565b9392505050565b60006020820190506138c56000830184612fa4565b92915050565b60006020820190506138e06000830184612fb3565b92915050565b600060c0820190506138fb6000830189612fb3565b6139086020830188612f95565b6139156040830187612f95565b61392260608301866137ab565b61392f60808301856137ab565b61393c60a08301846137ab565b979650505050505050565b600060808201905061395c6000830187612fb3565b6139696020830186612f95565b61397660408301856137ab565b61398360608301846137ab565b95945050505050565b60006080820190506139a16000830187612fb3565b6139ae6020830186612fb3565b6139bb60408301856137ab565b6139c86060830184612f95565b95945050505050565b60006080820190506139e66000830187612fb3565b6139f360208301866137c9565b613a006040830185612fb3565b613a0d6060830184612fb3565b95945050505050565b60006020820190508181036000830152613a308184613012565b905092915050565b60006020820190508181036000830152613a528184612fd9565b905092915050565b60006020820190508181036000830152613a738161304b565b9050919050565b60006020820190508181036000830152613a93816130f1565b9050919050565b60006020820190508181036000830152613ab381613131565b9050919050565b60006020820190508181036000830152613ad381613197565b9050919050565b60006020820190508181036000830152613af3816131fd565b9050919050565b60006020820190508181036000830152613b13816132ef565b9050919050565b60006020820190508181036000830152613b33816133e1565b9050919050565b60006020820190508181036000830152613b5381613447565b9050919050565b60006020820190508181036000830152613b73816134ad565b9050919050565b60006020820190508181036000830152613b93816134ed565b9050919050565b60006020820190508181036000830152613bb381613553565b9050919050565b60006020820190508181036000830152613bd3816135b9565b9050919050565b60006020820190508181036000830152613bf38161361f565b9050919050565b60006020820190508181036000830152613c1381613685565b9050919050565b60006020820190508181036000830152613c338161372b565b9050919050565b60006020820190508181036000830152613c538161376b565b9050919050565b6000602082019050613c6f60008301846137ab565b92915050565b6000602082019050613c8a60008301846137ba565b92915050565b6000604082019050613ca560008301856137ba565b613cb260208301846137e7565b9392505050565b6000602082019050613cce60008301846137c9565b92915050565b6000602082019050613ce960008301846137d8565b92915050565b6000602082019050613d0460008301846137e7565b92915050565b6000604082019050613d1f60008301856137d8565b613d2c60208301846137d8565b9392505050565b600081519050919050565b600081519050919050565b600082825260208201905092915050565b600081905092915050565b6000613d7082613d8d565b9050919050565b60008115159050919050565b6000819050919050565b600073ffffffffffffffffffffffffffffffffffffffff82169050919050565b6000819050919050565b600063ffffffff82169050919050565b600060ff82169050919050565b60006bffffffffffffffffffffffff82169050919050565b6000613df782613dd4565b9050919050565b60005b83811015613e1c578082015181840152602081019050613e01565b83811115613e2b576000848401525b50505050565b6000819050919050565b6000601f19601f8301169050919050565b613e5581613d65565b8114613e6057600080fd5b50565b613e6c81613d83565b8114613e7757600080fd5b50565b613e8381613dad565b8114613e8e57600080fd5b50565b613e9a81613db7565b8114613ea557600080fd5b50565b613eb181613dc7565b8114613ebc57600080fd5b5056fe556e693a3a6d696e743a207472616e7366657220616d6f756e74206f766572666c6f7773556e693a3a7472616e7366657246726f6d3a207472616e7366657220616d6f756e742065786365656473207370656e64657220616c6c6f77616e6365556e693a3a6d696e743a20746f74616c537570706c7920657863656564732039362062697473556e693a3a5f7472616e73666572546f6b656e733a207472616e7366657220616d6f756e7420657863656564732062616c616e6365556e693a3a7065726d69743a20616d6f756e7420657863656564732039362062697473556e693a3a5f6d6f7665566f7465733a20766f746520616d6f756e74206f766572666c6f7773556e693a3a5f7772697465436865636b706f696e743a20626c6f636b206e756d62657220657863656564732033322062697473556e693a3a5f6d6f7665566f7465733a20766f746520616d6f756e7420756e646572666c6f7773556e693a3a7472616e736665723a20616d6f756e7420657863656564732039362062697473556e693a3a6d696e743a20616d6f756e7420657863656564732039362062697473556e693a3a617070726f76653a20616d6f756e7420657863656564732039362062697473556e693a3a5f7472616e73666572546f6b656e733a207472616e7366657220616d6f756e74206f766572666c6f7773a26469706673582212204281ec25bc085f9b822e504694ba0f5b763ce61e728184da5442fda014711ca264736f6c63430006000033",
  "source": "pragma solidity ^0.6.0;\npragma experimental ABIEncoderV2;\n\nimport \"./SafeMath.sol\";\n\ncontract Uni {\n    /// @notice EIP-20 token name for this token\n    string public constant name = \"Uniswap\";\n\n    /// @notice EIP-20 token symbol for this token\n    string public constant symbol = \"UNI\";\n\n    /// @notice EIP-20 token decimals for this token\n    uint8 public constant decimals = 18;\n\n    /// @notice Total number of tokens in circulation\n    uint256 public totalSupply = 1_000_000_000e18;\n\n    address public minter;\n\n    uint256 public mintingAllowedAfter;\n\n    uint32 public constant minimumTimeBetweenMints = 1 days * 365;\n\n    uint8 public constant mintCap = 2;\n\n    mapping(address => mapping(address => uint96)) internal allowances;\n\n    mapping(address => uint96) internal balances;\n\n    mapping(address => address) public delegates;\n\n    struct Checkpoint {\n        uint32 fromBlock;\n        uint96 votes;\n    }\n\n    mapping(address => mapping(uint32 => Checkpoint)) public checkpoints;\n\n    mapping(address => uint32) public numCheckpoints;\n\n    bytes32 public constant DOMAIN_TYPEHASH = keccak256(\n        \"EIP712Domain(string name,uint256 chainId,address verifyingContract)\"\n    );\n\n    bytes32 public constant DELEGATION_TYPEHASH = keccak256(\n        \"Delegation(address delegatee,uint256 nonce,uint256 expiry)\"\n    );\n\n    bytes32 public constant PERMIT_TYPEHASH = keccak256(\n        \"Permit(address owner,address spender,uint256 value,uint256 nonce,uint256 deadline)\"\n    );\n\n    mapping(address => uint256) public nonces;\n\n    event MinterChanged(address minter, address newMinter);\n\n    event DelegateChanged(\n        address indexed delegator,\n        address indexed fromDelegate,\n        address indexed toDelegate\n    );\n\n    event DelegateVotesChanged(\n        address indexed delegate,\n        uint256 previousBalance,\n        uint256 newBalance\n    );\n\n    event Transfer(address indexed from, address indexed to, uint256 amount);\n\n    event Approval(\n        address indexed owner,\n        address indexed spender,\n        uint256 amount\n    );\n\n    constructor(\n        address account,\n        address minter_,\n        uint256 mintingAllowedAfter_\n    ) public {\n        require(\n            mintingAllowedAfter_ >= block.timestamp,\n            \"Uni::constructor: minting can only begin after deployment\"\n        );\n\n        balances[account] = uint96(totalSupply);\n        emit Transfer(address(0), account, totalSupply);\n        minter = minter_;\n        emit MinterChanged(address(0), minter);\n        mintingAllowedAfter = mintingAllowedAfter_;\n    }\n\n    function setMinter(address minter_) external {\n        require(\n            msg.sender == minter,\n            \"Uni::setMinter: only the minter can change the minter address\"\n        );\n        emit MinterChanged(minter, minter_);\n        minter = minter_;\n    }\n\n    function mint(address dst, uint256 rawAmount) external {\n        require(msg.sender == minter, \"Uni::mint: only the minter can mint\");\n        require(\n            block.timestamp >= mintingAllowedAfter,\n            \"Uni::mint: minting not allowed yet\"\n        );\n        require(\n            dst != address(0),\n            \"Uni::mint: cannot transfer to the zero address\"\n        );\n\n        mintingAllowedAfter = SafeMath.add(\n            block.timestamp,\n            minimumTimeBetweenMints\n        );\n\n        uint96 amount = safe96(rawAmount, \"Uni::mint: amount exceeds 96 bits\");\n        require(\n            amount <= SafeMath.div(SafeMath.mul(totalSupply, mintCap), 100),\n            \"Uni::mint: exceeded mint cap\"\n        );\n        totalSupply = safe96(\n            SafeMath.add(totalSupply, amount),\n            \"Uni::mint: totalSupply exceeds 96 bits\"\n        );\n\n        balances[dst] = add96(\n            balances[dst],\n            amount,\n            \"Uni::mint: transfer amount overflows\"\n        );\n        emit Transfer(address(0), dst, amount);\n\n        _moveDelegates(address(0), delegates[dst], amount);\n    }\n\n    function allowance(address account, address spender)\n        external\n        view\n        returns (uint256)\n    {\n        return allowances[account][spender];\n    }\n\n    function approve(address spender, uint256 rawAmount)\n        external\n        returns (bool)\n    {\n        uint96 amount;\n        if (rawAmount == uint256(-1)) {\n            amount = uint96(-1);\n        } else {\n            amount = safe96(rawAmount, \"Uni::approve: amount exceeds 96 bits\");\n        }\n\n        allowances[msg.sender][spender] = amount;\n\n        emit Approval(msg.sender, spender, amount);\n        return true;\n    }\n\n    function permit(\n        address owner,\n        address spender,\n        uint256 rawAmount,\n        uint256 deadline,\n        uint8 v,\n        bytes32 r,\n        bytes32 s\n    ) external {\n        uint96 amount;\n        if (rawAmount == uint256(-1)) {\n            amount = uint96(-1);\n        } else {\n            amount = safe96(rawAmount, \"Uni::permit: amount exceeds 96 bits\");\n        }\n\n        bytes32 domainSeparator = keccak256(\n            abi.encode(\n                DOMAIN_TYPEHASH,\n                keccak256(bytes(name)),\n                getChainId(),\n                address(this)\n            )\n        );\n        bytes32 structHash = keccak256(\n            abi.encode(\n                PERMIT_TYPEHASH,\n                owner,\n                spender,\n                rawAmount,\n                nonces[owner]++,\n                deadline\n            )\n        );\n        bytes32 digest = keccak256(\n            abi.encodePacked(\"\\x19\\x01\", domainSeparator, structHash)\n        );\n        address signatory = ecrecover(digest, v, r, s);\n        require(signatory != address(0), \"Uni::permit: invalid signature\");\n        require(signatory == owner, \"Uni::permit: unauthorized\");\n        require(now <= deadline, \"Uni::permit: signature expired\");\n\n        allowances[owner][spender] = amount;\n\n        emit Approval(owner, spender, amount);\n    }\n\n    function balanceOf(address account) external view returns (uint256) {\n        return balances[account];\n    }\n\n    function transfer(address dst, uint256 rawAmount) external returns (bool) {\n        uint96 amount = safe96(\n            rawAmount,\n            \"Uni::transfer: amount exceeds 96 bits\"\n        );\n        _transferTokens(msg.sender, dst, amount);\n        return true;\n    }\n\n    function transferFrom(\n        address src,\n        address dst,\n        uint256 rawAmount\n    ) external returns (bool) {\n        address spender = msg.sender;\n        uint96 spenderAllowance = allowances[src][spender];\n        uint96 amount = safe96(\n            rawAmount,\n            \"Uni::approve: amount exceeds 96 bits\"\n        );\n\n        if (spender != src && spenderAllowance != uint96(-1)) {\n            uint96 newAllowance = sub96(\n                spenderAllowance,\n                amount,\n                \"Uni::transferFrom: transfer amount exceeds spender allowance\"\n            );\n            allowances[src][spender] = newAllowance;\n\n            emit Approval(src, spender, newAllowance);\n        }\n\n        _transferTokens(src, dst, amount);\n        return true;\n    }\n\n    function delegate(address delegatee) public {\n        return _delegate(msg.sender, delegatee);\n    }\n\n    function delegateBySig(\n        address delegatee,\n        uint256 nonce,\n        uint256 expiry,\n        uint8 v,\n        bytes32 r,\n        bytes32 s\n    ) public {\n        bytes32 domainSeparator = keccak256(\n            abi.encode(\n                DOMAIN_TYPEHASH,\n                keccak256(bytes(name)),\n                getChainId(),\n                address(this)\n            )\n        );\n        bytes32 structHash = keccak256(\n            abi.encode(DELEGATION_TYPEHASH, delegatee, nonce, expiry)\n        );\n        bytes32 digest = keccak256(\n            abi.encodePacked(\"\\x19\\x01\", domainSeparator, structHash)\n        );\n        address signatory = ecrecover(digest, v, r, s);\n        require(\n            signatory != address(0),\n            \"Uni::delegateBySig: invalid signature\"\n        );\n        require(\n            nonce == nonces[signatory]++,\n            \"Uni::delegateBySig: invalid nonce\"\n        );\n        require(now <= expiry, \"Uni::delegateBySig: signature expired\");\n        return _delegate(signatory, delegatee);\n    }\n\n    function getCurrentVotes(address account) external view returns (uint96) {\n        uint32 nCheckpoints = numCheckpoints[account];\n        return\n            nCheckpoints > 0 ? checkpoints[account][nCheckpoints - 1].votes : 0;\n    }\n\n    function getPriorVotes(address account, uint256 blockNumber)\n        public\n        view\n        returns (uint96)\n    {\n        require(\n            blockNumber < block.number,\n            \"Uni::getPriorVotes: not yet determined\"\n        );\n\n        uint32 nCheckpoints = numCheckpoints[account];\n        if (nCheckpoints == 0) {\n            return 0;\n        }\n\n        if (checkpoints[account][nCheckpoints - 1].fromBlock <= blockNumber) {\n            return checkpoints[account][nCheckpoints - 1].votes;\n        }\n\n        if (checkpoints[account][0].fromBlock > blockNumber) {\n            return 0;\n        }\n\n        uint32 lower = 0;\n        uint32 upper = nCheckpoints - 1;\n        while (upper > lower) {\n            uint32 center = upper - (upper - lower) / 2;\n            Checkpoint memory cp = checkpoints[account][center];\n            if (cp.fromBlock == blockNumber) {\n                return cp.votes;\n            } else if (cp.fromBlock < blockNumber) {\n                lower = center;\n            } else {\n                upper = center - 1;\n            }\n        }\n        return checkpoints[account][lower].votes;\n    }\n\n    function _delegate(address delegator, address delegatee) internal {\n        address currentDelegate = delegates[delegator];\n        uint96 delegatorBalance = balances[delegator];\n        delegates[delegator] = delegatee;\n\n        emit DelegateChanged(delegator, currentDelegate, delegatee);\n\n        _moveDelegates(currentDelegate, delegatee, delegatorBalance);\n    }\n\n    function _transferTokens(\n        address src,\n        address dst,\n        uint96 amount\n    ) internal {\n        require(\n            src != address(0),\n            \"Uni::_transferTokens: cannot transfer from the zero address\"\n        );\n        require(\n            dst != address(0),\n            \"Uni::_transferTokens: cannot transfer to the zero address\"\n        );\n\n        balances[src] = sub96(\n            balances[src],\n            amount,\n            \"Uni::_transferTokens: transfer amount exceeds balance\"\n        );\n        balances[dst] = add96(\n            balances[dst],\n            amount,\n            \"Uni::_transferTokens: transfer amount overflows\"\n        );\n        emit Transfer(src, dst, amount);\n\n        _moveDelegates(delegates[src], delegates[dst], amount);\n    }\n\n    function _moveDelegates(\n        address srcRep,\n        address dstRep,\n        uint96 amount\n    ) internal {\n        if (srcRep != dstRep && amount > 0) {\n            if (srcRep != address(0)) {\n                uint32 srcRepNum = numCheckpoints[srcRep];\n                uint96 srcRepOld = srcRepNum > 0\n                    ? checkpoints[srcRep][srcRepNum - 1].votes\n                    : 0;\n                uint96 srcRepNew = sub96(\n                    srcRepOld,\n                    amount,\n                    \"Uni::_moveVotes: vote amount underflows\"\n                );\n                _writeCheckpoint(srcRep, srcRepNum, srcRepOld, srcRepNew);\n            }\n\n            if (dstRep != address(0)) {\n                uint32 dstRepNum = numCheckpoints[dstRep];\n                uint96 dstRepOld = dstRepNum > 0\n                    ? checkpoints[dstRep][dstRepNum - 1].votes\n                    : 0;\n                uint96 dstRepNew = add96(\n                    dstRepOld,\n                    amount,\n                    \"Uni::_moveVotes: vote amount overflows\"\n                );\n                _writeCheckpoint(dstRep, dstRepNum, dstRepOld, dstRepNew);\n            }\n        }\n    }\n\n    function _writeCheckpoint(\n        address delegatee,\n        uint32 nCheckpoints,\n        uint96 oldVotes,\n        uint96 newVotes\n    ) internal {\n        uint32 blockNumber = safe32(\n            block.number,\n            \"Uni::_writeCheckpoint: block number exceeds 32 bits\"\n        );\n\n        if (\n            nCheckpoints > 0 &&\n            checkpoints[delegatee][nCheckpoints - 1].fromBlock == blockNumber\n        ) {\n            checkpoints[delegatee][nCheckpoints - 1].votes = newVotes;\n        } else {\n            checkpoints[delegatee][nCheckpoints] = Checkpoint(\n                blockNumber,\n                newVotes\n            );\n            numCheckpoints[delegatee] = nCheckpoints + 1;\n        }\n\n        emit DelegateVotesChanged(delegatee, oldVotes, newVotes);\n    }\n\n    function safe32(uint256 n, string memory errorMessage)\n        internal\n        pure\n        returns (uint32)\n    {\n        require(n < 2**32, errorMessage);\n        return uint32(n);\n    }\n\n    function safe96(uint256 n, string memory errorMessage)\n        internal\n        pure\n        returns (uint96)\n    {\n        require(n < 2**96, errorMessage);\n        return uint96(n);\n    }\n\n    function add96(\n        uint96 a,\n        uint96 b,\n        string memory errorMessage\n    ) internal pure returns (uint96) {\n        uint96 c = a + b;\n        require(c >= a, errorMessage);\n        return c;\n    }\n\n    function sub96(\n        uint96 a,\n        uint96 b,\n        string memory errorMessage\n    ) internal pure returns (uint96) {\n        require(b <= a, errorMessage);\n        return a - b;\n    }\n\n    function getChainId() internal pure returns (uint256) {\n        uint256 chainId;\n        assembly {\n            chainId := chainid()\n        }\n        return chainId;\n    }\n}\n",
  "sourcePath": "/home/yori/projects/oligo/truffle/contracts/Uni.sol",
  "compiler": {
    "name": "solc",
    "version": "0.6.0+commit.26b70077.Emscripten.clang"
  },
  "schemaVersion": "3.3.1",
  "updatedAt": "2020-10-22T18:55:43.626Z",
  "networkType": "ethereum",
  "devdoc": {
    "methods": {}
  },
  "userdoc": {
    "methods": {}
  }
}