{
  "contractName": "VoteBuy",
  "abi": [
    {
      "inputs": [
        {
          "internalType": "address",
          "name": "_governor",
          "type": "address"
        },
        {
          "internalType": "address",
          "name": "_vault",
          "type": "address"
        },
        {
          "internalType": "address",
          "name": "_dai",
          "type": "address"
        }
      ],
      "stateMutability": "nonpayable",
      "type": "constructor"
    },
    {
      "inputs": [
        {
          "internalType": "address",
          "name": "",
          "type": "address"
        }
      ],
      "name": "balances",
      "outputs": [
        {
          "internalType": "bool",
          "name": "aggrement",
          "type": "bool"
        },
        {
          "internalType": "uint256",
          "name": "totalBalance",
          "type": "uint256"
        },
        {
          "internalType": "uint256",
          "name": "lastBalance",
          "type": "uint256"
        },
        {
          "internalType": "uint256",
          "name": "lastBuyProposal",
          "type": "uint256"
        }
      ],
      "stateMutability": "view",
      "type": "function",
      "constant": true
    },
    {
      "inputs": [],
      "name": "blockDelay",
      "outputs": [
        {
          "internalType": "uint256",
          "name": "",
          "type": "uint256"
        }
      ],
      "stateMutability": "view",
      "type": "function",
      "constant": true
    },
    {
      "inputs": [],
      "name": "currentAgainstPool",
      "outputs": [
        {
          "internalType": "uint256",
          "name": "",
          "type": "uint256"
        }
      ],
      "stateMutability": "view",
      "type": "function",
      "constant": true
    },
    {
      "inputs": [],
      "name": "currentForPool",
      "outputs": [
        {
          "internalType": "uint256",
          "name": "",
          "type": "uint256"
        }
      ],
      "stateMutability": "view",
      "type": "function",
      "constant": true
    },
    {
      "inputs": [],
      "name": "currentProposal",
      "outputs": [
        {
          "internalType": "uint256",
          "name": "",
          "type": "uint256"
        }
      ],
      "stateMutability": "view",
      "type": "function",
      "constant": true
    },
    {
      "inputs": [],
      "name": "dai",
      "outputs": [
        {
          "internalType": "contract DaiInt",
          "name": "",
          "type": "address"
        }
      ],
      "stateMutability": "view",
      "type": "function",
      "constant": true
    },
    {
      "inputs": [],
      "name": "governor",
      "outputs": [
        {
          "internalType": "contract GovernorInt",
          "name": "",
          "type": "address"
        }
      ],
      "stateMutability": "view",
      "type": "function",
      "constant": true
    },
    {
      "inputs": [],
      "name": "vault",
      "outputs": [
        {
          "internalType": "contract VoteVaultInt",
          "name": "",
          "type": "address"
        }
      ],
      "stateMutability": "view",
      "type": "function",
      "constant": true
    },
    {
      "inputs": [],
      "name": "checkinNewProposal",
      "outputs": [],
      "stateMutability": "nonpayable",
      "type": "function"
    },
    {
      "inputs": [],
      "name": "vote",
      "outputs": [],
      "stateMutability": "nonpayable",
      "type": "function"
    },
    {
      "inputs": [
        {
          "internalType": "uint256",
          "name": "_amount",
          "type": "uint256"
        },
        {
          "internalType": "bool",
          "name": "_aggrement",
          "type": "bool"
        }
      ],
      "name": "deposit",
      "outputs": [],
      "stateMutability": "nonpayable",
      "type": "function"
    },
    {
      "inputs": [
        {
          "internalType": "address",
          "name": "_to",
          "type": "address"
        }
      ],
      "name": "withDraw",
      "outputs": [],
      "stateMutability": "nonpayable",
      "type": "function"
    },
    {
      "inputs": [
        {
          "internalType": "bool",
          "name": "_aggrement",
          "type": "bool"
        }
      ],
      "name": "topUpWithTotalBalance",
      "outputs": [],
      "stateMutability": "nonpayable",
      "type": "function"
    }
  ],
  "bytecode": "0x60806040523480156200001157600080fd5b50604051620019ea380380620019ea833981810160405262000037919081019062000122565b826000806101000a81548173ffffffffffffffffffffffffffffffffffffffff021916908373ffffffffffffffffffffffffffffffffffffffff16021790555081600160006101000a81548173ffffffffffffffffffffffffffffffffffffffff021916908373ffffffffffffffffffffffffffffffffffffffff16021790555080600260006101000a81548173ffffffffffffffffffffffffffffffffffffffff021916908373ffffffffffffffffffffffffffffffffffffffff1602179055506103e8600781905550505050620001c6565b6000815190506200011c81620001ac565b92915050565b6000806000606084860312156200013857600080fd5b600062000148868287016200010b565b93505060206200015b868287016200010b565b92505060406200016e868287016200010b565b9150509250925092565b600062000185826200018c565b9050919050565b600073ffffffffffffffffffffffffffffffffffffffff82169050919050565b620001b78162000178565b8114620001c357600080fd5b50565b61181480620001d66000396000f3fe608060405234801561001057600080fd5b50600436106100cf5760003560e01c8063672818441161008c5780639a408321116100665780639a408321146101cb578063d98f6088146101e7578063f4b9fa7514610205578063fbfa77cf14610223576100cf565b8063672818441461018557806384b8bde41461018f5780638e6ad5ad146101ad576100cf565b80630a67d2c7146100d45780630c340a24146100f057806327e235e31461010e5780632b49d425146101415780635153620d1461015f578063632a9a521461017b575b600080fd5b6100ee60048036036100e991908101906112bc565b610241565b005b6100f861059b565b60405161010591906114dd565b60405180910390f35b610128600480360361012391908101906112bc565b6105c0565b604051610138949392919061147d565b60405180910390f35b6101496105fd565b6040516101569190611513565b60405180910390f35b610179600480360361017491908101906112e5565b610603565b005b610183610816565b005b61018d610989565b005b61019761098b565b6040516101a49190611513565b60405180910390f35b6101b5610991565b6040516101c29190611513565b60405180910390f35b6101e560048036036101e09190810190611378565b610997565b005b6101ef610d16565b6040516101fc9190611513565b60405180910390f35b61020d610d1c565b60405161021a91906114c2565b60405180910390f35b61022b610d42565b60405161023891906114f8565b60405180910390f35b600654600360003373ffffffffffffffffffffffffffffffffffffffff1673ffffffffffffffffffffffffffffffffffffffff1681526020019081526020016000206003015410156103d2576000600360003373ffffffffffffffffffffffffffffffffffffffff1673ffffffffffffffffffffffffffffffffffffffff1681526020019081526020016000206001015490506000600360003373ffffffffffffffffffffffffffffffffffffffff1673ffffffffffffffffffffffffffffffffffffffff16815260200190815260200160002060010181905550600260009054906101000a900473ffffffffffffffffffffffffffffffffffffffff1673ffffffffffffffffffffffffffffffffffffffff1663a9059cbb83836040518363ffffffff1660e01b8152600401610379929190611454565b602060405180830381600087803b15801561039357600080fd5b505af11580156103a7573d6000803e3d6000fd5b505050506040513d601f19601f820116820180604052506103cb919081019061130e565b5050610598565b6000600360003373ffffffffffffffffffffffffffffffffffffffff1673ffffffffffffffffffffffffffffffffffffffff16815260200190815260200160002060020154600360003373ffffffffffffffffffffffffffffffffffffffff1673ffffffffffffffffffffffffffffffffffffffff16815260200190815260200160002060010154039050600360003373ffffffffffffffffffffffffffffffffffffffff1673ffffffffffffffffffffffffffffffffffffffff16815260200190815260200160002060020154600360003373ffffffffffffffffffffffffffffffffffffffff1673ffffffffffffffffffffffffffffffffffffffff16815260200190815260200160002060010181905550600260009054906101000a900473ffffffffffffffffffffffffffffffffffffffff1673ffffffffffffffffffffffffffffffffffffffff1663a9059cbb83836040518363ffffffff1660e01b8152600401610543929190611454565b602060405180830381600087803b15801561055d57600080fd5b505af1158015610571573d6000803e3d6000fd5b505050506040513d601f19601f82011682018060405250610595919081019061130e565b50505b50565b6000809054906101000a900473ffffffffffffffffffffffffffffffffffffffff1681565b60036020528060005260406000206000915090508060000160009054906101000a900460ff16908060010154908060020154908060030154905084565b60065481565b600654600360003373ffffffffffffffffffffffffffffffffffffffff1673ffffffffffffffffffffffffffffffffffffffff1681526020019081526020016000206003015414156106dd57600360003373ffffffffffffffffffffffffffffffffffffffff1673ffffffffffffffffffffffffffffffffffffffff16815260200190815260200160002060010154600360003373ffffffffffffffffffffffffffffffffffffffff1673ffffffffffffffffffffffffffffffffffffffff16815260200190815260200160002060020181905550610813565b6106e5610d68565b60405180608001604052808315158152602001600360003373ffffffffffffffffffffffffffffffffffffffff1673ffffffffffffffffffffffffffffffffffffffff168152602001908152602001600020600101548152602001600360003373ffffffffffffffffffffffffffffffffffffffff1673ffffffffffffffffffffffffffffffffffffffff168152602001908152602001600020600101548152602001600654815250905080600360003373ffffffffffffffffffffffffffffffffffffffff1673ffffffffffffffffffffffffffffffffffffffff16815260200190815260200160002060008201518160000160006101000a81548160ff021916908315150217905550602082015181600101556040820151816002015560608201518160030155905050505b50565b61081e610d92565b6000809054906101000a900473ffffffffffffffffffffffffffffffffffffffff1673ffffffffffffffffffffffffffffffffffffffff1663013cf08b6006546040518263ffffffff1660e01b815260040161087a9190611513565b600060405180830381600087803b15801561089457600080fd5b505af11580156108a8573d6000803e3d6000fd5b505050506040513d6000823e3d601f19601f820116820180604052506108d19190810190611337565b9050438161010001510360075410156108e957600080fd5b6000600554600454119050600160009054906101000a900473ffffffffffffffffffffffffffffffffffffffff1673ffffffffffffffffffffffffffffffffffffffff1663c9d27afe600654836040518363ffffffff1660e01b815260040161095392919061152e565b600060405180830381600087803b15801561096d57600080fd5b505af1158015610981573d6000803e3d6000fd5b505050505050565b565b60055481565b60045481565b600260009054906101000a900473ffffffffffffffffffffffffffffffffffffffff1673ffffffffffffffffffffffffffffffffffffffff166323b872dd3330856040518463ffffffff1660e01b81526004016109f69392919061141d565b602060405180830381600087803b158015610a1057600080fd5b505af1158015610a24573d6000803e3d6000fd5b505050506040513d601f19601f82011682018060405250610a48919081019061130e565b610a5157600080fd5b600654600360003373ffffffffffffffffffffffffffffffffffffffff1673ffffffffffffffffffffffffffffffffffffffff168152602001908152602001600020600301541415610ba157801515600360003373ffffffffffffffffffffffffffffffffffffffff1673ffffffffffffffffffffffffffffffffffffffff16815260200190815260200160002060000160009054906101000a900460ff16151514610afc57600080fd5b81600360003373ffffffffffffffffffffffffffffffffffffffff1673ffffffffffffffffffffffffffffffffffffffff1681526020019081526020016000206001016000828254019250508190555081600360003373ffffffffffffffffffffffffffffffffffffffff1673ffffffffffffffffffffffffffffffffffffffff16815260200190815260200160002060020160008282540192505081905550610ce6565b610ba9610d68565b6040518060800160405280831515815260200184600360003373ffffffffffffffffffffffffffffffffffffffff1673ffffffffffffffffffffffffffffffffffffffff168152602001908152602001600020600101600082825401925050819055815260200184600360003373ffffffffffffffffffffffffffffffffffffffff1673ffffffffffffffffffffffffffffffffffffffff1681526020019081526020016000206002018190558152602001600654815250905080600360003373ffffffffffffffffffffffffffffffffffffffff1673ffffffffffffffffffffffffffffffffffffffff16815260200190815260200160002060008201518160000160006101000a81548160ff021916908315150217905550602082015181600101556040820151816002015560608201518160030155905050505b8015610d015781600460008282540192505081905550610d12565b816005600082825401925050819055505b5050565b60075481565b600260009054906101000a900473ffffffffffffffffffffffffffffffffffffffff1681565b600160009054906101000a900473ffffffffffffffffffffffffffffffffffffffff1681565b60405180608001604052806000151581526020016000815260200160008152602001600081525090565b604051806101a0016040528060008152602001600073ffffffffffffffffffffffffffffffffffffffff1681526020016000815260200160608152602001606081526020016060815260200160608152602001600081526020016000815260200160008152602001600081526020016000151581526020016000151581525090565b600081359050610e2381611799565b92915050565b600081519050610e3881611799565b92915050565b600082601f830112610e4f57600080fd5b8151610e62610e5d82611584565b611557565b91508181835260208401935060208101905083856020840282011115610e8757600080fd5b60005b83811015610eb75781610e9d8882610e29565b845260208401935060208301925050600181019050610e8a565b5050505092915050565b600082601f830112610ed257600080fd5b8151610ee5610ee0826115ac565b611557565b9150818183526020840193506020810190508360005b83811015610f2b5781518601610f118882611056565b845260208401935060208301925050600181019050610efb565b5050505092915050565b600082601f830112610f4657600080fd5b8151610f59610f54826115d4565b611557565b9150818183526020840193506020810190508360005b83811015610f9f5781518601610f8588826110aa565b845260208401935060208301925050600181019050610f6f565b5050505092915050565b600082601f830112610fba57600080fd5b8151610fcd610fc8826115fc565b611557565b91508181835260208401935060208101905083856020840282011115610ff257600080fd5b60005b83811015611022578161100888826112a7565b845260208401935060208301925050600181019050610ff5565b5050505092915050565b60008135905061103b816117b0565b92915050565b600081519050611050816117b0565b92915050565b600082601f83011261106757600080fd5b815161107a61107582611624565b611557565b9150808252602083016020830185838301111561109657600080fd5b6110a1838284611766565b50505092915050565b600082601f8301126110bb57600080fd5b81516110ce6110c982611650565b611557565b915080825260208301602083018583830111156110ea57600080fd5b6110f5838284611766565b50505092915050565b60006101a0828403121561111157600080fd5b61111c6101a0611557565b9050600061112c848285016112a7565b600083015250602061114084828501610e29565b6020830152506040611154848285016112a7565b604083015250606082015167ffffffffffffffff81111561117457600080fd5b61118084828501610e3e565b606083015250608082015167ffffffffffffffff8111156111a057600080fd5b6111ac84828501610fa9565b60808301525060a082015167ffffffffffffffff8111156111cc57600080fd5b6111d884828501610f35565b60a08301525060c082015167ffffffffffffffff8111156111f857600080fd5b61120484828501610ec1565b60c08301525060e0611218848285016112a7565b60e08301525061010061122d848285016112a7565b61010083015250610120611243848285016112a7565b61012083015250610140611259848285016112a7565b6101408301525061016061126f84828501611041565b6101608301525061018061128584828501611041565b6101808301525092915050565b6000813590506112a1816117c7565b92915050565b6000815190506112b6816117c7565b92915050565b6000602082840312156112ce57600080fd5b60006112dc84828501610e14565b91505092915050565b6000602082840312156112f757600080fd5b60006113058482850161102c565b91505092915050565b60006020828403121561132057600080fd5b600061132e84828501611041565b91505092915050565b60006020828403121561134957600080fd5b600082015167ffffffffffffffff81111561136357600080fd5b61136f848285016110fe565b91505092915050565b6000806040838503121561138b57600080fd5b600061139985828601611292565b92505060206113aa8582860161102c565b9150509250929050565b6113bd816116c4565b82525050565b6113cc8161167c565b82525050565b6113db8161168e565b82525050565b6113ea816116d6565b82525050565b6113f9816116fa565b82525050565b6114088161171e565b82525050565b611417816116ba565b82525050565b600060608201905061143260008301866113b4565b61143f60208301856113c3565b61144c604083018461140e565b949350505050565b600060408201905061146960008301856113c3565b611476602083018461140e565b9392505050565b600060808201905061149260008301876113d2565b61149f602083018661140e565b6114ac604083018561140e565b6114b9606083018461140e565b95945050505050565b60006020820190506114d760008301846113e1565b92915050565b60006020820190506114f260008301846113f0565b92915050565b600060208201905061150d60008301846113ff565b92915050565b6000602082019050611528600083018461140e565b92915050565b6000604082019050611543600083018561140e565b61155060208301846113d2565b9392505050565b6000604051905081810181811067ffffffffffffffff8211171561157a57600080fd5b8060405250919050565b600067ffffffffffffffff82111561159b57600080fd5b602082029050602081019050919050565b600067ffffffffffffffff8211156115c357600080fd5b602082029050602081019050919050565b600067ffffffffffffffff8211156115eb57600080fd5b602082029050602081019050919050565b600067ffffffffffffffff82111561161357600080fd5b602082029050602081019050919050565b600067ffffffffffffffff82111561163b57600080fd5b601f19601f8301169050602081019050919050565b600067ffffffffffffffff82111561166757600080fd5b601f19601f8301169050602081019050919050565b60006116878261169a565b9050919050565b60008115159050919050565b600073ffffffffffffffffffffffffffffffffffffffff82169050919050565b6000819050919050565b60006116cf82611742565b9050919050565b60006116e1826116e8565b9050919050565b60006116f38261169a565b9050919050565b60006117058261170c565b9050919050565b60006117178261169a565b9050919050565b600061172982611730565b9050919050565b600061173b8261169a565b9050919050565b600061174d82611754565b9050919050565b600061175f8261169a565b9050919050565b60005b83811015611784578082015181840152602081019050611769565b83811115611793576000848401525b50505050565b6117a28161167c565b81146117ad57600080fd5b50565b6117b98161168e565b81146117c457600080fd5b50565b6117d0816116ba565b81146117db57600080fd5b5056fea26469706673582212203b60cec19489bea32126b33f057ac688545e6318f2b480a4f0abf7399551562564736f6c63430006000033",
  "source": "//SPDX-License-Identifier: Unlicense\npragma solidity ^0.6.0;\npragma experimental ABIEncoderV2;\n\n// TODO: we noticed some kind of bug last time, i don't remember what it was\n\ncontract VoteBuy {\n    GovernorInt public governor;\n    VoteVaultInt public vault;\n    DaiInt public dai;\n\n    struct UserStatus {\n        bool aggrement;\n        uint256 totalBalance;\n        uint256 lastBalance;\n        uint256 lastBuyProposal;\n    }\n\n    mapping(address => UserStatus) public balances;\n\n    uint256 public currentForPool;\n    uint256 public currentAgainstPool;\n\n    uint256 public currentProposal;\n\n    uint256 public blockDelay;\n\n    constructor(\n        address _governor,\n        address _vault,\n        address _dai\n    ) public {\n        governor = GovernorInt(_governor);\n        vault = VoteVaultInt(_vault);\n        dai = DaiInt(_dai);\n        blockDelay = 1000;\n    }\n\n    modifier onlyWhenPoolClosed() {\n        GovernorInt.Proposal memory proposal = governor.proposals(\n            currentProposal\n        );\n        require(blockDelay >= (proposal.endBlock - block.number));\n        _;\n    }\n\n    function checkinNewProposal() public {\n        // somehow get current proposal\n    }\n\n    function vote() public onlyWhenPoolClosed {\n        //What do when equal?\n        bool forOrAgainst = currentForPool > currentAgainstPool;\n        vault.vote(currentProposal, forOrAgainst);\n    }\n\n    //assumes prior approval at Dai\n    function deposit(uint256 _amount, bool _aggrement) public {\n        // TODO always topUpWithTotalBalance() so we don't lose old amounts\n        require(dai.transferFrom(msg.sender, address(this), _amount));\n\n        // Top up previous buy\n        if (balances[msg.sender].lastBuyProposal == currentProposal) {\n            require(balances[msg.sender].aggrement == _aggrement);\n            balances[msg.sender].totalBalance += _amount;\n            balances[msg.sender].lastBalance += _amount;\n            // New buy (maybe change order to make cheaper for most?)\n        } else {\n            UserStatus memory status = UserStatus({\n                aggrement: _aggrement,\n                totalBalance: balances[msg.sender].totalBalance += _amount,\n                lastBalance: balances[msg.sender].lastBalance = _amount,\n                lastBuyProposal: currentProposal\n            });\n            balances[msg.sender] = status;\n        }\n        if (_aggrement) {\n            currentForPool += _amount;\n        } else {\n            currentAgainstPool += _amount;\n        }\n    }\n\n    function withDraw(address _to) public {\n        if (balances[msg.sender].lastBuyProposal < currentProposal) {\n            uint256 amount = balances[msg.sender].totalBalance;\n            balances[msg.sender].totalBalance = 0;\n            dai.transfer(_to, amount);\n        } else {\n            uint256 amount = balances[msg.sender].totalBalance -\n                balances[msg.sender].lastBalance;\n            balances[msg.sender].totalBalance = balances[msg.sender]\n                .lastBalance;\n            dai.transfer(_to, amount);\n        }\n    }\n\n    function topUpWithTotalBalance(bool _aggrement) public {\n        if (balances[msg.sender].lastBuyProposal == currentProposal) {\n            balances[msg.sender].lastBalance = balances[msg.sender]\n                .totalBalance;\n        } else {\n            UserStatus memory status = UserStatus({\n                aggrement: _aggrement,\n                totalBalance: balances[msg.sender].totalBalance,\n                lastBalance: balances[msg.sender].totalBalance,\n                lastBuyProposal: currentProposal\n            });\n            balances[msg.sender] = status;\n        }\n    }\n}\n\ninterface GovernorInt {\n    struct Proposal {\n        uint256 id;\n        address proposer;\n        uint256 eta;\n        address[] targets;\n        uint256[] values;\n        string[] signatures;\n        bytes[] calldatas;\n        uint256 startBlock;\n        uint256 endBlock;\n        uint256 forVotes;\n        uint256 againstVotes;\n        bool canceled;\n        bool executed;\n    }\n\n    function proposals(uint256 _proposalId) external returns (Proposal memory);\n}\n\ninterface VoteVaultInt {\n    function vote(uint256 _proposalId, bool _support) external;\n}\n\ninterface DaiInt {\n    function transferFrom(\n        address src,\n        address dst,\n        uint256 rawAmount\n    ) external returns (bool);\n\n    function transfer(address dst, uint256 rawAmount) external returns (bool);\n}\n",
  "sourcePath": "/home/yori/projects/oligo/truffle/contracts/VoteBuy.sol",
  "compiler": {
    "name": "solc",
    "version": "0.6.0+commit.26b70077.Emscripten.clang"
  },
  "schemaVersion": "3.3.1",
  "updatedAt": "2020-10-22T18:55:43.645Z",
  "networkType": "ethereum",
  "devdoc": {
    "methods": {}
  },
  "userdoc": {
    "methods": {}
  }
}